:10081D00010800010D000110000409000000000294
:10082D000E000002190000021B0000041100000060
:07083D00000415000000009B
:09000E00D283C284D285C286228D
:0909AB00D283D284D285D28622C7
:1007BC001208E4750D807510801203ADEF640A4EBB
:1007CC00600312000E1203ADEF640A4E700312099F
:1007DC00ABE4FFFEFD7C43AB14AA13A912A81112C3
:1007EC000116E4FBFAF978431200251202FA8F0D78
:1007FC00E4FFFEFD7C43AB18AA17A916A81512013D
:10080C0016E4FBFAF978431200251202FA8F1080D5
:01081C00A833
:03000B000208AF39
:1008AF00C0E0C0D0758AF7758CFFE508D3950D4071
:1008BF0006C282C2A08004D282D2A0E508D39510CE
:1008CF004006C287C2A08004D287D2A00508C28D7D
:0508DF00D0D0D0E03292
:03001B000205E0FB
:1005E000C0E0C0F0C083C082C0D075D000C000C0E1
:1005F00001C002C003C004C005C006C007758BA4BB
:10060000758DFF1203ADEF640A4E60721203ADAC3C
:1006100006AD07EC1202C112069B8F0C8E0B8D0AE1
:100620008C09E4FFFE7D7A7C44AB0CAA0BA90AA8D6
:10063000091201161202FA8E0E8F0FC3E4950FF500
:100640001AE4950EF519850E1B850F1CFCAD1A12C8
:1006500002C1E4FBFA797A784412021F8F148E13D8
:100660008D128C11AC1BAD1CEC1202C1E4FBFA79AB
:100670007A784412021F8F188E178D168C15C28F30
:10068000D007D006D005D004D003D002D001D000CE
:0B069000D0D0D082D083D0F0D0E03278
:040909007F0A7E00E3
:10090D00EF1FAC0670011E4C600B007D027CC7DC36
:05091D00FEDDFC80EB93
:0109220022B2
:1004E400E4FB7590FFC29320970E7F0AFE12090D5C
:1004F4003097FD1209097B3120960B1209093096B9
:10050400FD1209097B3420950B1209093095FD125F
:1005140009097B3720940B1209093094FD1209094B
:100524007B2E7590FFC29220970B1209093097FD1C
:100534001209097B3220960B1209093096FD120923
:10054400097B3520950B1209093095FD1209097BA9
:100554003820940B1209093094FD1209097B307577
:1005640090FFC29120970B1209093097FD120909D7
:100574007B3320960B1209093096FD1209097B364C
:1005840020950B1209093095FD1209097B39209435
:100594000B1209093094FD1209097B3D7590FFC2C5
:1005A4009020970B1209093097FD1209097B2B2023
:1005B400960B1209093096FD1209097B2D20950B23
:1005C4001209093095FD1209097B2A20940B12099E
:0B05D400093094FD1209097B2FAF03D2
:0105DF0022F9
:10086F00E4FB20B10E7F0AFE12090D30B1FD120913
:10087F00097B0120B00B12090930B0FD1209097B69
:10088F000220B20B12090930B2FD1209097B0320B5
:0F089F00B30B12090930B3FD1209097B04AF0333
:0108AE002227
:1008440002250000022F0000022D138802290064F3
:1008540002270000041D0000000002230000022BF8
:060864000000022100006B
:10069B008E258F26E526252CF52CE525352BF52BE0
:1006AB00C3E52C9464E52B648094804006752B0085
:1006BB00752C64D3E52C949CE52B6480947F5006B9
:1006CB00752BFF752C9CC3E5269530F522E52595FA
:1006DB002FF521AC29AD2AAE2BAF2C12038DAA0618
:1006EB00AB07AC25AD26AE2DAF2E12038DEF2BFB3A
:1006FB00EE3AFAAC27AD28AE21AF2212038DEF2BC9
:10070B00F524EE3AF523FCAD241202C1E4FBFA7991
:10071B007A784412021F8F208E1F8D1E8C1D85250B
:05072B002F852630229D
:04086A000255000033
:1003AD0030A01120A10E20A20B20A30830A405E43B
:1003BD00F555F55630A01130A10E20A20B30A30833
:1003CD0030A405E4F555F55630A01220A10F20A25A
:1003DD000C30A30930A40675550075560130A012D6
:1003ED0030A10F20A20C20A30930A40674FFF555EF
:1003FD00F55630A01230A10F30A20C20A30930A465
:10040D000674FFF555F55630A01220A10F30A20C41
:10041D0030A30930A40675550075560120A0122091
:10042D00A10F30A20C30A30930A4067555007556E6
:10043D000330A01230A10F30A20C20A30920A40676
:10044D007555FF7556FD20A01230A10F30A20C304E
:10045D00A30930A40675550075560230A01230A1BF
:10046D000F30A20C30A30920A4067555FF7556FE5A
:10047D0020A01220A10F20A20C30A30930A40675D4
:10048D00550075560330A01230A10F20A20C20A3E9
:10049D000920A4067555FF7556FD30A01130A10E2B
:1004AD0030A20B30A30830A405E4F555F55620A075
:1004BD000C30A10930A20630A30330A40F30A012D6
:1004CD0020A10F30A20C20A30930A406755500758C
:0704DD00560AAE55AF56228E
:10095300D283C284D285C28674FF12037BAB34AACE
:0609630035A93602037BFA
:10096900C283D284C285D28674FF12037BAB3AAAB2
:060979003BA93C02037BD8
:10092300D283C284D285C286748012037BAB40AA71
:0809330041A94274FF02037B9D
:10093B00D283C284D285C28674FF12037BAB46AAD4
:08094B0047A948748002037BF8
:10097F00D283D284D285D28674FF12037BAB4CAA6A
:06098F004DA94E02037B9E
:10099500C283C284C285C28674FF12037BAB52AA8E
:0609A50053A95402037B7C
:1008E400758900438911758BA4758DFF758AF77519
:1008F4008CFFC28DD28CC28FD28ED2A9D2ABD2AF92
:05090400C2B9D2BB22C4
:10001E00020366E86480F8E933E83360110460F0A7
:10002E00ED33EC337009E8FCE9FDEAFEEBFF220448
:10003E0060DED3EB9FEA9EE99DE8C2E78CF0C2F743
:10004E0095F0400CE8CCF8E9CDF9EACEFAEBCFFB0F
:10005E0012033185D0F05804700320D5B3E8047034
:10006E00075002B2D502037092D5EC0460F7E4CCCF
:10007E00C0E0C398F8603B94186008400DD0E0FBD8
:10008E00020348E4FBFAC9FC8028E830E406E4C920
:10009E00FBE4CAFCE830E305E4C9CACBFCE854072C
:1000AE006010F8C3E913F9EA13FAEB13FBEC13FC37
:1000BE00D8F130F52FC3E49CFCEF9BFFEE9AFEEDDA
:1000CE0099FDD0E0FBEF4E4D4C701222DB03020384
:1000DE006DEC2CFCEF33FFEE33FEED33FDED30E730
:1000EE00EB020348EF2BFFEE3AFEED39FDD0E0FBBD
:1000FE0050130BBB0003020370ED13FDEE13FEEF66
:08010E0013FFEC13FC0203488F
:10011600EC4D6011E8497017ED33EC3304600DE4E3
:10012600FCFFFEFD22E933E8330470F80203661291
:10013600033158046009E4CC248150062850090292
:10014600037028400302036DC0E0EB4A7044B98097
:1001560006D0E0FB02035CEF4E701CBD8008EBFF8F
:10016600EAFEE9FD80EBE98DF0A4FEE5F00201FF71
:10017600E9CDF9EAFEEBFFEF89F0A4FCE5F0CE89C4
:10018600F0A42EFFE435F0CD89F0A42DFEE435F081
:100196008067EF4E7005BD80D780C3EF8BF0A4ACAF
:1001A600F0EE8BF0A42CFCE435F0F8EF8AF0A42CEA
:1001B600E5F038FCE433CB8DF0A42CFCE5F03BF8FD
:1001C600EE8AF0A42CFCE5F038F8E433CF89F0A4ED
:1001D6002CFCE5F038CF3400CE89F0A42FFFE5F0F3
:1001E6003EFEE433C98DF0A42EFEE5F039CD8AF04B
:1001F600A42FFFE5F03EFEE43DFD33D0E0FB5007C3
:100206000BBB000F020370EC2CFCEF33FFEE33FE4A
:06021600ED33FD02034878
:10021C00020370EC5D046005E85904700302036688
:10022C00120331580460F6EC4860F2EC7004FDFEE9
:10023C00FF22C860DB2481C85009C39860025006B5
:10024C0002036D9850CAF582E9294B4A7005AB82BE
:10025C0002035C75F0007C1A7880C3EF9BEE9AED7C
:10026C0099400DC3EF9BFFEE9AFEED99FDE842F02D
:10027C00DC23ACF0D0E0FFD0E0FED0E0FDAB822080
:10028C00E7101BEB60BAEC2CFCEF33FFEE33FEED0A
:10029C0033FD020348E803F830E705C0F075F000C1
:1002AC00EF2FFFEE33FEED33FD40B830E7C280AAEE
:1002BC0075F020800E75F010800575F0087D007EBD
:1002CC00007F003392D530D50312039FEC334010DE
:1002DC00EF33FFEE33FEED33FDEC33FCD5F0ED22C6
:0E02EC00E5F0247EA2D513CC92E7CDCEFF2202
:1002FA00EDD2E7CD33EC3392D524814006E4FFFEFC
:10030A00FDFC22FCE4CFCECDCC24E0501174FF805A
:10031A00EDC3CC13CCCD13CDCE13CECF13CF0470F7
:07032A00F030D5DE02039F55
:10033100E9D2E7C933E833F892D5EDD2E7CD33EC12
:0703410033FC5002B2D5228B
:10034800EC30E7100FBF000C0EBE00080DBD000416
:100358000BEB6014A2D5EB13FCED92E7FD2274FFC2
:10036800FCFDFEFF22E480F8A2D574FF13FC7D801B
:03037800E480EF2F
:03000000020730C4
:0C073000787FE4F6D8FD7581560207774B
:10037B00BB010689828A83F0225002F722BBFE0161
:02038B00F3225B
:10038D00EF8DF0A4A8F0CF8CF0A428CE8DF0A42E84
:02039D00FE223E
:0E039F00C3E49FFFE49EFEE49DFDE49CFC226F
:10073C000207BCE493A3F8E493A34003F68001F210
:10074C0008DFF48029E493A3F85407240CC8C333BE
:10075C00C4540F4420C8834004F456800146F6DF8D
:10076C00E4800B010204081020408090081DE47EF8
:10077C00019360BCA3FF543F30E509541FFEE49382
:10078C00A360010ECF54C025E060A840B8E493A349
:10079C00FAE493A3F8E493A3C8C582C8CAC583CA74
:1007AC00F0A3C8C582C8CAC583CADFE9DEE780BE2C
:01086E000089
:00000001FF
